:030000000208886B
:0C088800787FE4F6D8FD75814F0208CFA0
:10097E00022A000001130102300000021103FF02DF
:10098E001603FF01100A0623009A804D1900061B5C
:10099E0000B8CECEB8000C3200000200010A00D121
:1009AE0000000000011800011500012200012F00B7
:0D09BE0001290001140002190000012100B0
:10067800AB40AA41A942E4120AAAAB40AA41A94246
:1006880012075AAB40AA41A942120A91FE640470AB
:1006980044EF6401703F0513E513D39405400375D7
:1006A8001301E513B40107E4F52CF52DF52EE51338
:1006B800B40208752C06E4F52DF52EE513B40308ED
:1006C800752C09E4F52DF52EE513B40408752C0CEA
:1006D800E4F52DF52EEEB40312BF010F0522E52235
:1006E800D394034006752901E4F522EF6401600400
:1006F800EF30E25DEE64017029E522602524FE609A
:100708000B1460102402701A74238002741B2513C2
:10071800F806800EE51325E02432F80806E618707E
:100728000106120A9164027028E522602424FE6002
:100738000B14600F2402701974238002741B251394
:10074800F81622E51325E02432F808E61618700199
:01075800168A
:01075900227D
:1007F900E51325E02432F8E6FE08E6FFD3E5129F6B
:10080900E5119E5047E513C394045040752F01C369
:10081900E51A94E8E519940340230513E4F52FF547
:1008290019F51AC2B7E513B40203752C06E513B41A
:100839000303752C09E513B40403752C0CC3E51ADD
:100849009432E5199400400DD2B78009E4F52FF5EB
:1008590019F51AC2B7D3E5179467E5169402501E25
:100869007F647E00120B2B7F021209D6D3EF9467A7
:0F087900EE94025007C28C120B4980EBD28C22F6
:10023A00120C9C120C53120C65120C74120BE21263
:10024A000B821203DDEF6005120B4980F5D2AF7FF6
:10025A00E87E03120B2B7F021209D68E168F177FA8
:10026A00031209D68E118F121207F9E5226003E4F0
:10027A00F521E51324FE606014700302032914704B
:10028A000302036C1470030203972404600302033D
:10029A00AFE521C3941E500974232513F8E6FD80A7
:1002AA0009E521C3942350097D33E4FF120BCB8067
:1002BA0003E4F521741B2513F8E6FD7F01120BCB2D
:1002CA00E5227006D2B2C2B3C2B6E52C6406600358
:1002DA000203AF05130203AFE521C3941E5009744C
:1002EA00232513F8E6FD8009E521C3942350097DEF
:1002FA0033E4FF120BCB8003E4F521741B2513F8BA
:10030A00E6FD7F01120BCBE5227006C2B2D2B3C260
:10031A00B6E52C640960030203AF05130203AFE5D7
:10032A0021C3941E500974232513F8E6FD8009E5BC
:10033A0021C3942350097D19E4FF120BCB8003E4F7
:10034A00F521741B2513F8E6FD7F01120BCBE5227C
:10035A007006C2B2C2B3D2B6E52C640C704705135C
:10036A00804374232513F8E6FDE4FF120BCB741BBC
:10037A002513F8E6FD7F01120BCBE5227006C2B207
:10038A00C2B3C2B6E52CB40E1C05138018AD23E423
:10039A00FF120BCBAD1B7F01120BCBE5227006C2FD
:1003AA00B2C2B3C2B6E52224FE600C14600E240267
:1003BA00700D120C1D8008120C2F8003120C41E5DF
:1003CA002964016003020260F5291203DD120B4958
:0303DA00020260BC
:03000B00020914D3
:10091400C0E0C0F0C083C082C0D075D008758A0022
:10092400758CDC052BE52B7002052AC39464E52A3B
:100934009400402C752A00752B000521052EE52E08
:10094400D3943B4005752E00052DE52DD3943B40F3
:1009540005752D00052CE52CD394174003752C0048
:10096400E52F6008051AE51A70020519120678D0F9
:0A097400D0D082D083D0F0D0E03262
:0300230002055F74
:10055F00C0E0C0F0C083C082C0D075D0082098031F
:10056F0002066DC298859910E510B4AA0DE4FFFE3E
:10057F00120B9B7F007E02120B9BE5106401703003
:10058F0074232513F8E6FF120003741B2513F8E6F6
:10059F00FF120003E51325E02432F8E6FE08EEFF14
:1005AF00120003E51325E02432F808E6FF120003DA
:1005BF00E510640270207F02120003E516FF12009F
:1005CF0003AF171200037F03120003E511FF1200A0
:1005DF0003AF12120003E510B4030FAF2C12000388
:1005EF00AF2D120003AF2E120003E510B4121875D1
:1005FF002C05752D3B752E28AF2C120003AF2D1235
:10060F000003AF2E120003E510B42318752C0875E4
:10061F002D3B752E28AF2C120003AF2D120003AF08
:10062F002E120003E510B43418752C0B752D3B7585
:10063F002E28AF2C120003AF2D120003AF2E120085
:10064F0003E510B44518752C0D752D3B752E28AF8D
:10065F002C120003AF2D120003AF2E120003D0D0C7
:09066F00D082D083D0F0D0E0323B
:050CA300AE2AAF2B2278
:100B2B00D3EF9400EE940040147C007D38ED1D70E3
:0D0B3B00011CED4C70F7EF1F70E61E80E30B
:010B4800228A
:100BB4007D527C03ED1D70011C144C70F7EF1F7007
:060BC400011E144E70EA50
:010BCA002208
:100C0A00E4FDFCC3ED9FEC9E5008000DBD00010CF5
:020C1A0080F167
:010C1C0022B5
:100BE200439D0C5397DF75BCC0E4F5BDF5BE7F0293
:040BF200FE020C0AE9
:0209D600AB076D
:1009D800E4F53EF53FF582F583120BE2E4FAEB44C9
:1009E800C842BC7F087E00120C0AE5BC30E4FB5309
:1009F800BCEFAFBDEF75F004A4FFADBEE5F0F53E6A
:100A0800EF4DF53F2582F582E53E3583F5830ABA39
:100A180008CCE582AE837803CEC313CE13D8F9F59C
:040A2800828E83FF38
:010A2C0022A7
:100ABC00E4FBFAEF44C842BC7F047E00120C0AE54A
:100ACC00BC30E4FB53BCEFAFBDEF75F004A4FFAD3D
:090ADC00BEE5F0FAEF4DAE02FF99
:010AE50022EE
:100B82005391FC439203E4F5D8F5E9F5F975D902DE
:090B920075DA4275DB42D2DE2265
:100BCB00EF7008C374FF9DF5EAF5FABF0108C37413
:070BDB00FF9DF5EBF5FB2285
:100A2D00AB07AA06C3EA64809480400CE4FDFF1274
:100A3D000BCBAD030F120BCBD3EB9400EA64809478
:100A4D0080500FE4FD7F01120BCBEBF404FD1F1260
:030A5D000BCB229E
:0A09CB0001480002490000014B0042
:070C9C005392CF5391CF22C8
:100B67002094037F01222095037F022220CC037F5C
:0B0B7700032220CD037F04227F002218
:06075A008B438A4489452F
:10076000E4F546F547120B678F467F01FE120B2B0F
:10077000E54814601314604F1460232403706CE583
:100780004660687548018063E546600D754803E47E
:10079000F549F54A85464B8052E4F548804DE546DB
:1007A0007007F5487547018042054AE54A70020521
:1007B00049D39496E54994004031754802E4F549DF
:1007C000F54A7547028024E5467004F5488019050E
:1007D0004AE54A70020549D39464E549940040080B
:1007E000E4F549F54A754704434702AB43AA44A9D7
:0807F00045E54B120AAAAF47D0
:0107F80022DE
:0E0C7400758901E4F58A758CDCD28CD2A92238
:0F0C650043B2FC53B103C2B7C2B2C2B3C2B6228C
:100B4900C2B7C2B2C2B3C2B67FF47E01120B2BD2B6
:0E0B5900B7D2B2D2B3D2B67FF47E01020B2B1C
:100C1D00C2B27FF47E01120B2BD2B27FF47E0102A1
:020C2D000B2B8F
:100C2F00C2B27FF47E01120B2BD2B27FE87E030299
:020C3F000B2B7D
:100C4100C2B27FE87E03120B2BD2B27FF47E010287
:020C51000B2B6B
:10000E00EF7002D2B7BF0102D2B2BF0202D2B3BFAB
:05001E000302D2B6222E
:100BF600AE071FEE600DE4FCFD0DED70010C4C60C0
:030C0600EF80F686
:010C090022C8
:0D0C8200E4F5C7F5C5F5C675C380F5C422BD
:100A6000AF3EEF3395E0FEEF25E0FFEE33FEEF24DF
:060A700040FFEE3402FE1F
:100A7600C2AF75C78275C5018FC48EC375C65A7558
:0A0A8600C6A500AFC2120C82D2AF69
:010A90002243
:050B0B00253EF8E6FDA7
:100B1000C2AF75C78275C5028FC48EC38DC275C63C
:0B0B20005A75C6A500120C82D2AF224D
:100B9B00C2AF75C78275C5038FC48EC375C65A7530
:090BAB00C6A500120C82D2AF2293
:1003DD00E4F53EFFFE120B9B753E01AF3EEF3395EC
:1003ED00E0FE7D55120B10AF3EEF3395E0FE120A85
:1003FD0076120003EF645560037F0122053EC3E5CD
:10040D003E6480948540D47F007E02120B9BE4F500
:10041D003EAF3EEF3395E0FEE42FFFEE3402FE7467
:10042D0023120B0BAF3EEF3395E0FEEF2420FFEED2
:10043D003402FE741B120B0BE53E25E02432F8E668
:10044D00FEEEFDAF3EEF3395E0FEEF25E0FFEE3320
:10045D00FEEF2440FFEE3402FE120B10E53E25E0C8
:10046D002432F808E6FDAF3EEF3395E0FEEF25E0D0
:10047D00FFEE33FEEF2441FFEE3402FE120B1005AA
:10048D003EC3E53E648094864087E4F53EAF3EEF83
:10049D003395E0FEE42F120A717423253EF8E66FC2
:1004AD0060037F0122AF3EEF3395E0FEE42F120A89
:1004BD0071120003AF3EEF3395E0FEEF2420120AD8
:1004CD0071741B253EF8E66F60037F0122AF3EEF8E
:1004DD003395E0FEEF2420120A71120003120A6018
:1004ED00AD07E53E25E02432F8E6FE08EE6D60032B
:1004FD007F0122120A60120003AF3EEF3395E0FE3A
:10050D00EF25E0FFEE33FEEF2441120A71E53E25A3
:10051D00E02432F808E66F60037F0122AF3EEF332F
:10052D0095E0FEEF25E0FFEE33FEEF2441120A7158
:10053D00120003053EC3E53E648094865003020419
:10054D009A7DAAE4FFFE120B10120A761200037FA9
:01055D00009D
:01055E00227A
:10002600E4F54F754F01AF4F7E007D55120B10AFB3
:100036004F120A76120003EF645560037F01220512
:100046004FE54FC3940540DEE4FFFE120A76120028
:1000560003EF64AA70030201AA7F007E02120B9BC3
:10006600E4F54FE4254FFFE43402FE7423254FF8F0
:10007600E6FD120B10E54F2420FFE43402FE741B4C
:10008600254FF8E6FD120B10E54F75F002A424404B
:10009600FBE5F03402FAE54F25E02432F8E6FEEE01
:1000A600FDAF03AE02120B10E54F75F002A424411A
:1000B600FFE5F03402FEE54F25E02432F808E6FDC0
:1000C600120B10054FE54FC394064097E4F54FE435
:1000D600254FFFE43402FE120A767423254FF8E614
:1000E6006F60037F0122E4254FFFE43402FE120A0B
:1000F60076120003E54F2420FFE43402FE120A764E
:10010600741B254FF8E66F60037F0122E54F24201C
:10011600FFE43402FE120A76120003E54F75F00280
:10012600A42440FFE5F03402FE120A76AD07E54F3F
:1001360025E02432F8E6FE08EE6D60037F0122E535
:100146004F75F002A42440FFE5F03402FE120A7651
:10015600120003E54F75F002A42441FFE5F03402D6
:10016600FE120A76E54F25E02432F808E66F6003B2
:100176007F0122E54F75F002A42441FFE5F0340229
:10018600FE120A76120003054FE54FC3940650038C
:100196000200D57DAAE4FFFE120B10120A761200A9
:1001A60003020237E4F54FE4254FFFE43402FE1262
:1001B6000A767423254FF8A6077423254FF8E6FF21
:1001C600120003E54F2420FFE43402FE120A76747F
:1001D6001B254FF8A607741B254FF8E6FF120003F0
:1001E600E54F75F002A42440FFE5F03402FE120A42
:1001F60076120003EF7F00FEC007C006E54F75F0DC
:1002060002A42441FFE5F03402FE120A761200032E
:10021600EFFDD0E0FED0E04DFFE54F25E02432F8BB
:10022600A60608A607054FE54FC39406500302012C
:03023600AD7F0099
:0102390022A2
:0D0C8F00E52CC3940A4005120B4980FB229E
:100C530075985A75D7E875D6FF758E14438E01D2F1
:020C6300AC22C1
:080003003099FDC2998F99228A
:100AE6008B4C8A4D894EAB4CAA4DA94E120A916089
:100AF60013054EE54E7002054D14F9120A91FF12C8
:050B0600000380E22263
:1008940002023AE493A3F8E493A34003F68001F23E
:1008A40008DFF48029E493A3F85407240CC8C33365
:1008B400C4540F4420C8834004F456800146F6DF34
:1008C400E4800B010204081020408090097EE47E3D
:1008D400019360BCA3FF543F30E509541FFEE49329
:1008E400A360010ECF54C025E060A840B8E493A3F0
:1008F400FAE493A3F8E493A3C8C582C8CAC583CA1B
:10090400F0A3C8C582C8CAC583CADFE9DEE780BED2
:0109D5000021
:100A9100BB010689828A83E0225002E722BBFE0263
:090AA100E32289828A83E4932296
:100AAA00BB010689828A83F0225002F722BBFE012B
:020ABA00F32225
:00000001FF
