:0300000002073DB7
:0C073D00787FE4F6D8FD75814E02078439
:1008BF00022A000001130102300000021103FF029F
:1008CF001603FF01100A0623009A804D1900061B1C
:1008DF0000B8CECEB8000C3200000200010A00D1E1
:1008EF0000000000011800011500012200012F0077
:0D08FF000129000114000219000001210070
:10056300AB40AA41A942E41209E7AB40AA41A94220
:1005730012060FAB40AA41A9421209CEFEB4040FE2
:10058300BF010C0513E513D394054003751301EE66
:10059300B40312BF010F0522E522D394034006756D
:1005A3002901E4F522EF64016004EF30E25DEE64BB
:1005B300017029E522602524FE600B1460102402DB
:1005C300701A74238002741B2513F806800EE5133A
:1005D30025E02432F80806E6187001061209CE64F5
:1005E300027028E522602424FE600B14600F2402AD
:1005F300701974238002741B2513F81622E5132542
:0B060300E02432F808E616187001161B
:01060E0022C9
:1006AE00E51325E02432F8E6FE08E6FFD3E5129FB7
:1006BE00E5119E5047E513C394045040752F01C3B6
:1006CE00E51A94E8E519940340230513E4F52FF594
:1006DE0019F51AC2B7E513B40203752C06E513B467
:1006EE000303752C09E513B40403752C0CC3E51A2A
:1006FE009432E5199400400DD2B78009E4F52FF538
:10070E0019F51AC2B7D3E5179467E5169402501E71
:10071E007F647E00120A8B7F05120917D3EF942C8B
:0F072E00EE94005007C28C120AA980EBD28C22E5
:10023A00120BE8120B9F120BB1120BC0120A4812D2
:10024A000AE2120026EF6005120AA980F5D2AF7FF2
:10025A00E87E03120A8B7F051209178E118F127F0F
:10026A00021209178E168F171206AEE5226003E4F2
:10027A00F521E51324FE606014700302032914704B
:10028A000302036C1470030203972404600302033D
:10029A00AFE521C3941E500974232513F8E6FD80A7
:1002AA0009E521C3942350097D33E4FF120B2B8007
:1002BA0003E4F521741B2513F8E6FD7F01120B2BCD
:1002CA00E5227006D2B2C2B3C2B6E52C6406600358
:1002DA000203AF05130203AFE521C3941E5009744C
:1002EA00232513F8E6FD8009E521C3942350097DEF
:1002FA0033E4FF120B2B8003E4F521741B2513F85A
:10030A00E6FD7F01120B2BE5227006C2B2D2B3C200
:10031A00B6E52C640960030203AF05130203AFE5D7
:10032A0021C3941E500974232513F8E6FD8009E5BC
:10033A0021C3942350097D19E4FF120B2B8003E497
:10034A00F521741B2513F8E6FD7F01120B2BE5221C
:10035A007006C2B2C2B3D2B6E52C640C704705135C
:10036A00804374232513F8E6FDE4FF120B2B741B5C
:10037A002513F8E6FD7F01120B2BE5227006C2B2A7
:10038A00C2B3C2B6E52CB40E1C05138018AD23E423
:10039A00FF120B2BAD1B7F01120B2BE5227006C23D
:1003AA00B2C2B3C2B6E52224FE600C14600E240267
:1003BA00700D120B698008120B7B8003120B8DE5FE
:1003CA0029B40109E4F5291203E1120AA97F0A7E78
:0703DA0000120A8B02026011
:03000B0002085593
:10085500C0E0C0F0C083C082C0D075D008758A00E2
:10086500758CDC052BE52B7002052AC39464E52AFB
:100875009400402C752A00752B000521052EE52EC8
:10088500D3943B4005752E00052DE52DD3943B40B3
:1008950005752D00052CE52CD394174003752C0008
:1008A500E52F6008051AE51A70020519120563D0CF
:0A08B500D0D082D083D0F0D0E03222
:030023000207C908
:1007C900C0E0C0F0C083C082C0D075D00830987135
:1007D900C298859910E510B4AA0DE4FFFE120AFB30
:1007E9007F007E02120AFBE5106401703074232534
:1007F90013F8E6FF120003741B2513F8E6FF120035
:1008090003E51325E02432F8E6FE08EEFF120003A3
:10081900E51325E02432F808E6FF120003E510B4D9
:10082900020BE511FF120003AF12120003E510B429
:10083900030FAF2C120003AF2D120003AF2E1200CD
:0C08490003D0D0D082D083D0F0D0E032B9
:050BEF00AE2AAF2B222D
:100A8B00D3EF9400EE940040147C007D38ED1D7084
:0D0A9B00011CED4C70F7EF1F70E61E80E3AC
:010AA800222B
:100B14007D527C03ED1D70011C144C70F7EF1F70A7
:060B2400011E144E70EAF0
:010B2A0022A8
:100B5600E4FDFCC3ED9FEC9E5008000DBD00010CAA
:020B660080F11C
:010B6800226A
:100A4800439D2443A20475BCE0E4F5BDF5BE7F02D6
:100A5800FE120B567F051209F97F051209F97F0569
:030A68000209F987
:02091700AB072C
:10091900E4F53EF53FF582F583FAEB448842BC7F66
:10092900087E00120B56E5BC30E4FB53BCEFAFBDAB
:10093900EF75F004A4FFADBEE5F0F53EEF4DF53FD0
:100949002582F582E53E3583F5830ABA08CCE5822E
:10095900AE837803CEC313CE13D8F9F5828E83FF05
:01096900226B
:1009F900E4FBFAEF448842BC7F047E00120B56E503
:100A0900BC30E4FB53BCEFAFBDEF75F004A4FFAD00
:090A1900BEE5F0FAEF4DAE02FF5C
:010A220022B1
:100AE2005391FC439203E4F5D8F5E9F5F975D9027F
:090AF20075DA4275DB42D2DE2206
:100B2B00EF7008C374FF9DF5EAF5FABF0108C374B3
:070B3B00FF9DF5EBF5FB2225
:10096A00AB07AA06C3EA64809480400CE4FDFF1238
:10097A000B2BAD030F120B2BD3EB9400EA6480947C
:10098A0080500FE4FD7F01120B2BEBF404FD1F12C4
:03099A000B2B2202
:0A090C0001480002490000014B0001
:070BE8005392E35391F12247
:100AC7002093037F01222094037F022220CC037FFF
:0B0AD700032220CD037F04227F0022B9
:06060F008B438A4489457B
:10061500E4F546F547120AC78F467F01FE120A8B9D
:10062500E54814601314604F1460232403706CE5CF
:100635004660687548018063E546600D754803E4CA
:10064500F549F54A85464B8052E4F548804DE54627
:100655007007F5487547018042054AE54A7002056D
:1006650049D39496E54994004031754802E4F5492B
:10067500F54A7547028024E5467004F5488019055A
:100685004AE54A70020549D39464E5499400400857
:10069500E4F549F54A754704434702AB43AA44A923
:0806A50045E54B1209E7AF47E0
:0106AD00222A
:0E0BC000758901E4F58A758CDCD28CD2A922ED
:0F0BB10043B2FC53B103C2B7C2B2C2B3C2B62241
:100AA900C2B7C2B2C2B3C2B67FF47E01120A8BD2F8
:0E0AB900B7D2B2D2B3D2B67FF47E01020A8B5E
:100B6900C2B27FF47E01120A8BD2B27FF47E0102F7
:020B79000A8BE5
:100B7B00C2B27FF47E01120A8BD2B27FE87E0302EF
:020B8B000A8BD3
:100B8D00C2B27FE87E03120A8BD2B27FF47E0102DD
:020B9D000A8BC1
:10000E00EF7002D2B7BF0102D2B2BF0202D2B3BFAB
:05001E000302D2B6222E
:100B4200AE071FEE600DE4FCFD0DED70010C4C6074
:030B5200EF80F63B
:010B5500227D
:0D0BCE00E4F5C7F5C5F5C675C380F5C42272
:10099D00AF3EEF3395E0FEEF25E0FFEE33FEEF24A3
:0609AD0040FFEE3402FEE3
:1009B300C2AF75C78275C5018FC48EC375C65A751C
:0A09C300C6A500AFC2120BCED2AFE2
:0109CD002207
:050A6B00253EF8E6FD48
:100A7000C2AF75C78275C5028FC48EC38DC275C6DD
:0B0A80005A75C6A500120BCED2AF22A3
:100AFB00C2AF75C78275C5038FC48EC375C65A75D1
:090B0B00C6A500120BCED2AF22E8
:1003E100E4F53EFFFE120AFB753E01AF3EEF339589
:1003F100E0FE7D55120A70AF3EEF3395E0FE120923
:10040100B3120003EF645560037F0122053EC3E58B
:100411003E6480948540D47F007E02120AFBE4F59D
:100421003EAF3EEF3395E0FEE42FFFEE3402FE7463
:1004310023120A6BAF3EEF3395E0FEEF2420FFEE6F
:100441003402FE741B120A6BE53E25E02432F8E605
:10045100FEEEFDAF3EEF3395E0FEEF25E0FFEE331C
:10046100FEEF2440FFEE3402FE120A70E53E25E065
:100471002432F808E6FDAF3EEF3395E0FEEF25E0CC
:10048100FFEE33FEEF2441FFEE3402FE120A700547
:100491003EC3E53E648094864087E4F53EAF3EEF7F
:1004A1003395E0FEE42F1209AE7423253EF8E66F82
:1004B10060037F0122AF3EEF3395E0FEE42F120986
:1004C100AE120003AF3EEF3395E0FEEF2420120998
:1004D100AE741B253EF8E66F60037F0122AF3EEF4D
:1004E1003395E0FEEF24201209AE12000312099D9C
:1004F100AD07E53E25E02432F8E6FE08EE6D600327
:100501007F012212099D120003AF3EEF3395E0FEF9
:10051100EF25E0FFEE33FEEF24411209AEE53E2563
:10052100E02432F808E66F60037F0122AF3EEF332B
:1005310095E0FEEF25E0FFEE33FEEF24411209AE18
:10054100120003053EC3E53E648094865003020415
:100551009E7DAAE4FFFE120A701209B31200037F06
:010561000099
:010562002276
:10002600E4F53E753E01AF3E7E007D55120A70AF87
:100036003E1209B3120003EF645560037F012205E7
:100046003EE53EC3940540DEE4FFFE1209B312000E
:1000560003EF64AA70030201AA7F007E02120AFB64
:10006600E4F53EE4253EFFE43402FE7423253EF823
:10007600E6FD120A70E53E2420FFE43402FE741BFE
:10008600253EF8E6FD120A70E53E75F002A424400E
:10009600FBE5F03402FAE53E25E02432F8E6FEEE12
:1000A600FDAF03AE02120A70E53E75F002A42441CC
:1000B600FFE5F03402FEE53E25E02432F808E6FDD1
:1000C600120A70053EE53EC394064097E4F53EE409
:1000D600253EFFE43402FE1209B37423253EF8E6FA
:1000E6006F60037F0122E4253EFFE43402FE12091D
:1000F600B3120003E53E2420FFE43402FE1209B3E6
:10010600741B253EF8E66F60037F0122E53E24203E
:10011600FFE43402FE1209B3120003E53E75F00255
:10012600A42440FFE5F03402FE1209B3AD07E53E14
:1001360025E02432F8E6FE08EE6D60037F0122E535
:100146003E75F002A42440FFE5F03402FE1209B326
:10015600120003E53E75F002A42441FFE5F03402E7
:10016600FE1209B3E53E25E02432F808E66F600387
:100176007F0122E53E75F002A42441FFE5F034023A
:10018600FE1209B3120003053EE53EC39406500372
:100196000200D57DAAE4FFFE120A701209B312000E
:1001A60003020237E4F53EE4253EFFE43402FE1284
:1001B60009B37423253EF8A6077423253EF8E6FF07
:1001C600120003E53E2420FFE43402FE1209B37454
:1001D6001B253EF8A607741B253EF8E6FF12000312
:1001E600E53E75F002A42440FFE5F03402FE120954
:1001F600B3120003EF7F00FEC007C006E53E75F0B0
:1002060002A42441FFE5F03402FE1209B3120003F2
:10021600EFFDD0E0FED0E04DFFE53E25E02432F8CC
:10022600A60608A607053EE53EC39406500302014E
:03023600AD7F0099
:0102390022A2
:0D0BDB00E52CC3940A4005120AA980FB22F4
:100B9F0075985A75D7E875D6FF758E14438E01D2A6
:020BAF00AC2276
:080003003099FDC2998F99228A
:100A23008B4C8A4D894EAB4CAA4DA94E1209CE6010
:100A330013054EE54E7002054D14F91209CEFF124F
:050A4300000380E22227
:1007490002023AE493A3F8E493A34003F68001F28A
:1007590008DFF48029E493A3F85407240CC8C333B1
:10076900C4540F4420C8834004F456800146F6DF80
:10077900E4800B01020408102040809008BFE47E49
:10078900019360BCA3FF543F30E509541FFEE49375
:10079900A360010ECF54C025E060A840B8E493A33C
:1007A900FAE493A3F8E493A3C8C582C8CAC583CA67
:1007B900F0A3C8C582C8CAC583CADFE9DEE780BE1F
:0109160000E0
:1009CE00BB010689828A83E0225002E722BBFE0227
:0909DE00E32289828A83E493225A
:1009E700BB010689828A83F0225002F722BBFE01EF
:0209F700F322E9
:00000001FF
