:03000000020739BB
:0C073900787FE4F6D8FD75814C02078043
:1008BB0002280000011301022E0000021103FF01A8
:1008CB00100A06210080673319000619009ACECE54
:1008DB00B4000C300000019F00D1006A0000000042
:1008EB00011600011500012000012D000127000158
:0908FB00140002170000011F00A7
:10055A00AB3EAA3FA940E41209DFAB3EAA3FA9403D
:10056A0012060C20CD0302060BAB3EAA3FA940128D
:10057A0009C6FEB4040FBF010C0513E513D3940595
:10058A004003751301EEB40312BF010F0520E520E5
:10059A00D394034006752701E4F520EF6401600453
:1005AA00EF30E25DEE64017029E520602524FE60EB
:1005BA000B1460102402701A742180027419251316
:1005CA00F806800EE51325E02430F80806E61870D0
:1005DA0001061209C664027028E520602424FE6020
:1005EA000B14600F240270197421800274192513E8
:1005FA00F81622E51325E02430F808E616187001EB
:01060A0016D9
:01060B0022CC
:1006AB00E51325E02430F8E6FE08E6FFD3E5129FBC
:1006BB00E5119E506FE513C394045068E512942C1A
:1006CB00E5119400501F7F647E00120A837F051290
:1006DB00090FD3EF942CEE94005007C28C120AA191
:1006EB0080EBD28C22752D01C3E51894E8E51794A5
:1006FB000340230513E4F52DF517F518C2B7E513E1
:10070B00B40203752A06E513B40303752A09E5132E
:10071B00B40403752A0CC3E5189432E51794004012
:0E072B000CD2B722E4F52DF517F518C2B7224F
:10023A00120BE0120B97120BA9120BB8120A4012FA
:10024A000ADA120026EF6005120AA180F5D2AF7F02
:10025A00E87E03120A837F0512090F8E118F12128C
:10026A0006ABE5206003E4F51FE51324FE60601485
:10027A007003020320147003020363147003020361
:10028A008E240460030203A6E51FC3941E5009745A
:10029A00212513F8E6FD8009E51FC3942350097D43
:1002AA0033E4FF120B238003E4F51F74192513F8B6
:1002BA00E6FD7F01120B23E5207006D2B2C2B3C25B
:1002CA00B6E52A640660030203A605130203A6E53F
:1002DA001FC3941E500974212513F8E6FD8009E511
:1002EA001FC3942350097D33E4FF120B238003E4D8
:1002FA00F51F74192513F8E6FD7F01120B23E5207B
:10030A007006C2B2D2B3C2B6E52A64096003020318
:10031A00A605130203A6E51FC3941E5009742125DE
:10032A0013F8E6FD8009E51FC3942350097D19E4FB
:10033A00FF120B238003E4F51F74192513F8E6FD59
:10034A007F01120B23E5207006C2B2C2B3D2B6E512
:10035A002A640C70470513804374212513F8E6FDBF
:10036A00E4FF120B2374192513F8E6FD7F01120B23
:10037A0023E5207006C2B2C2B3C2B6E52AB40E1C87
:10038A0005138018AD21E4FF120B23AD197F01126A
:10039A000B23E5207006C2B2C2B3C2B6E52024FE22
:1003AA00600C14600E2402700D120B618008120B8F
:1003BA00738003120B85E527B40109E4F5271203BC
:0E03CA00D8120AA17F0A7E00120A8302026086
:03000B0002085197
:10085100C0E0C0F0C083C082C0D075D008758A00E6
:10086100758CDC0529E52970020528C39464E52807
:100871009400402C752800752900051F052CE52CD6
:10088100D3943B4005752C00052BE52BD3943B40BD
:1008910005752B00052AE52AD394174003752A0014
:1008A100E52D60080518E5187002051712055AD0E4
:0A08B100D0D082D083D0F0D0E03226
:030023000207C50C
:1007C500C0E0C0F0C083C082C0D075D00830987139
:1007D500C298859910E510B4AA0DE4FFFE120AF33C
:1007E5007F007E02120AF3E5106401703074212542
:1007F50013F8E6FF12000374192513F8E6FF12003B
:1008050003E51325E02430F8E6FE08EEFF120003A9
:10081500E51325E02430F808E6FF120003E510B4DF
:10082500020BE511FF120003AF12120003E510B42D
:10083500030FAF2A120003AF2B120003AF2C1200D7
:0C08450003D0D0D082D083D0F0D0E032BD
:050BE700AE28AF292239
:100A8300D3EF9400EE940040147C007D38ED1D708C
:0D0A9300011CED4C70F7EF1F70E61E80E3B4
:010AA0002233
:100B0C007D527C03ED1D70011C144C70F7EF1F70AF
:060B1C00011E144E70EAF8
:010B220022B0
:100B4E00E4FDFCC3ED9FEC9E5008000DBD00010CB2
:020B5E0080F124
:010B60002272
:100A4000439D2043A20475BCE0E4F5BDF5BE7F02E2
:100A5000FE120B4E7F051209F17F051209F17F0589
:030A60000209F197
:02090F00AB0734
:10091100E4F53CF53DF582F583FAEB448842BC7F72
:10092100087E00120B4EE5BC30E4FB53BCEFAFBDBB
:10093100EF75F004A4FFADBEE5F0F53CEF4DF53DDC
:100941002582F582E53C3583F5830ABA08CCE58238
:10095100AE837803CEC313CE13D8F9F5828E83FF0D
:010961002273
:1009F100E4FBFAEF448842BC7F047E00120B4EE513
:100A0100BC30E4FB53BCEFAFBDEF75F004A4FFAD08
:090A1100BEE5F0FAEF4DAE02FF64
:010A1A0022B9
:100ADA005391FC439203E4F5D8F5E9F5F975D90287
:090AEA0075DA4275DB42D2DE220E
:100B2300EF7008C374FF9DF5EAF5FABF0108C374BB
:070B3300FF9DF5EBF5FB222D
:10096200AB07AA06C3EA64809480400CE4FDFF1240
:100972000B23AD030F120B23D3EB9400EA64809494
:1009820080500FE4FD7F01120B23EBF404FD1F12D4
:030992000B232212
:0A090400014600024700000149000F
:070BE0005392E35391F1224F
:100ABF002092037F01222093037F02222094037F41
:0B0ACF00032220CC037F04227F0022C2
:06060C008B418A42894384
:10061200E4F544F545120ABF8F447F01FE120A83B6
:10062200E54614601314604F1460232403706CE5D4
:100632004460687546018063E544600D754603E4D5
:10064200F547F5488544498052E4F546804DE54436
:100652007007F54675450180420548E54870020578
:1006620047D39496E54794004031754602E4F54736
:10067200F5487545028024E5447004F54680190565
:1006820048E54870020547D39464E5479400400862
:10069200E4F547F548754504434502AB41AA42A932
:0806A20043E5491209DFAF45F1
:0106AA00222D
:0E0BB800758901E4F58A758CDCD28CD2A922F5
:0F0BA90043B2FC53B103C2B7C2B2C2B3C2B62249
:100AA100C2B7C2B2C2B3C2B67FF47E01120A83D208
:0E0AB100B7D2B2D2B3D2B67FF47E01020A836E
:100B6100C2B27FF47E01120A83D2B27FF47E010207
:020B71000A83F5
:100B7300C2B27FF47E01120A83D2B27FE87E0302FF
:020B83000A83E3
:100B8500C2B27FE87E03120A83D2B27FF47E0102ED
:020B95000A83D1
:10000E00EF7002D2B7BF0102D2B2BF0202D2B3BFAB
:05001E000302D2B6222E
:100B3A00AE071FEE600DE4FCFD0DED70010C4C607C
:030B4A00EF80F643
:010B4D002285
:0D0BC600E4F5C7F5C5F5C675C380F5C4227A
:10099500AF3CEF3395E0FEEF25E0FFEE33FEEF24AD
:0609A50040FFEE3402FEEB
:1009AB00C2AF75C78275C5018FC48EC375C65A7524
:0A09BB00C6A500AFC2120BC6D2AFF2
:0109C500220F
:050A6300253CF8E6FD52
:100A6800C2AF75C78275C5028FC48EC38DC275C6E5
:0B0A78005A75C6A500120BC6D2AF22B3
:100AF300C2AF75C78275C5038FC48EC375C65A75D9
:090B0300C6A500120BC6D2AF22F8
:1003D800E4F53CFFFE120AF3753C01AF3CEF3395A0
:1003E800E0FE7D55120A68AF3CEF3395E0FE120936
:1003F800AB120003EF645560037F0122053CC3E59F
:100408003C6480948540D47F007E02120AF3E4F5B0
:100418003CAF3CEF3395E0FEE42FFFEE3402FE7470
:1004280021120A63AF3CEF3395E0FEEF2420FFEE84
:100438003402FE7419120A63E53C25E02430F8E61C
:10044800FEEEFDAF3CEF3395E0FEEF25E0FFEE3327
:10045800FEEF2440FFEE3402FE120A68E53C25E078
:100468002430F808E6FDAF3CEF3395E0FEEF25E0D9
:10047800FFEE33FEEF2441FFEE3402FE120A680558
:100488003CC3E53C648094864087E4F53CAF3CEF90
:100498003395E0FEE42F1209A67421253CF8E66F97
:1004A80060037F0122AF3CEF3395E0FEE42F120991
:1004B800A6120003AF3CEF3395E0FEEF24201209AB
:1004C800A67419253CF8E66F60037F0122AF3CEF64
:1004D8003395E0FEEF24201209A6120003120995B5
:1004E800AD07E53C25E02430F8E6FE08EE6D600334
:1004F8007F0122120995120003AF3CEF3395E0FE0D
:10050800EF25E0FFEE33FEEF24411209A6E53C2576
:10051800E02430F808E66F60037F0122AF3CEF3338
:1005280095E0FEEF25E0FFEE33FEEF24411209A629
:10053800120003053CC3E53C648094865003020422
:10054800957DAAE4FFFE120A681209AB1200037F28
:0105580000A2
:01055900227F
:10002600E4F53C753C01AF3C7E007D55120A68AF95
:100036003C1209AB120003EF645560037F012205F1
:100046003CE53CC3940540DEE4FFFE1209AB12001A
:1000560003EF64AA70030201AA7F007E02120AF36C
:10006600E4F53CE4253CFFE43402FE7421253CF82B
:10007600E6FD120A68E53C2420FFE43402FE74190A
:10008600253CF8E6FD120A68E53C75F002A424401A
:10009600FBE5F03402FAE53C25E02430F8E6FEEE16
:1000A600FDAF03AE02120A68E53C75F002A42441D6
:1000B600FFE5F03402FEE53C25E02430F808E6FDD5
:1000C600120A68053CE53CC394064097E4F53CE417
:1000D600253CFFE43402FE1209AB7421253CF8E608
:1000E6006F60037F0122E4253CFFE43402FE12091F
:1000F600AB120003E53C2420FFE43402FE1209ABF8
:100106007419253CF8E66F60037F0122E53C242044
:10011600FFE43402FE1209AB120003E53C75F0025F
:10012600A42440FFE5F03402FE1209ABAD07E53C1E
:1001360025E02430F8E6FE08EE6D60037F0122E537
:100146003C75F002A42440FFE5F03402FE1209AB30
:10015600120003E53C75F002A42441FFE5F03402E9
:10016600FE1209ABE53C25E02430F808E66F600393
:100176007F0122E53C75F002A42441FFE5F034023C
:10018600FE1209AB120003053CE53CC3940650037E
:100196000200D57DAAE4FFFE120A681209AB12001E
:1001A60003020237E4F53CE4253CFFE43402FE1288
:1001B60009AB7421253CF8A6077421253CF8E6FF17
:1001C600120003E53C2420FFE43402FE1209AB745E
:1001D60019253CF8A6077419253CF8E6FF1200031A
:1001E600E53C75F002A42440FFE5F03402FE120956
:1001F600AB120003EF7F00FEC007C006E53C75F0BA
:1002060002A42441FFE5F03402FE1209AB120003FA
:10021600EFFDD0E0FED0E04DFFE53C25E02430F8D0
:10022600A60608A607053CE53CC394065003020152
:03023600AD7F0099
:0102390022A2
:0D0BD300E52AC3940A4005120AA180FB2206
:100B970075985A75D7E875D6FF758E14438E01D2AE
:020BA700AC227E
:080003003099FDC2998F99228A
:100A1B008B4A8A4B894CAB4AAA4BA94C1209C6602C
:100A2B0013054CE54C7002054B14F91209C6FF1265
:050A3B00000380E2222F
:1007450002023AE493A3F8E493A34003F68001F28E
:1007550008DFF48029E493A3F85407240CC8C333B5
:10076500C4540F4420C8834004F456800146F6DF84
:10077500E4800B01020408102040809008BBE47E51
:10078500019360BCA3FF543F30E509541FFEE49379
:10079500A360010ECF54C025E060A840B8E493A340
:1007A500FAE493A3F8E493A3C8C582C8CAC583CA6B
:1007B500F0A3C8C582C8CAC583CADFE9DEE780BE23
:01090E0000E8
:1009C600BB010689828A83E0225002E722BBFE022F
:0909D600E32289828A83E4932262
:1009DF00BB010689828A83F0225002F722BBFE01F7
:0209EF00F322F1
:00000001FF
